{
  "_format": "hh-sol-artifact-1",
  "contractName": "XipplePriceFeed",
  "sourceName": "contracts/oracle/xipplePriceFeed.sol",
  "abi": [
    {
      "inputs": [
        {
          "internalType": "uint8",
          "name": "decimals_",
          "type": "uint8"
        },
        {
          "internalType": "string",
          "name": "description_",
          "type": "string"
        }
      ],
      "stateMutability": "nonpayable",
      "type": "constructor"
    },
    {
      "inputs": [
        {
          "internalType": "address",
          "name": "owner",
          "type": "address"
        }
      ],
      "name": "OwnableInvalidOwner",
      "type": "error"
    },
    {
      "inputs": [
        {
          "internalType": "address",
          "name": "account",
          "type": "address"
        }
      ],
      "name": "OwnableUnauthorizedAccount",
      "type": "error"
    },
    {
      "anonymous": false,
      "inputs": [
        {
          "indexed": true,
          "internalType": "address",
          "name": "previousOwner",
          "type": "address"
        },
        {
          "indexed": true,
          "internalType": "address",
          "name": "newOwner",
          "type": "address"
        }
      ],
      "name": "OwnershipTransferred",
      "type": "event"
    },
    {
      "anonymous": false,
      "inputs": [
        {
          "indexed": true,
          "internalType": "address",
          "name": "requester",
          "type": "address"
        },
        {
          "indexed": false,
          "internalType": "uint32",
          "name": "epoch",
          "type": "uint32"
        },
        {
          "indexed": false,
          "internalType": "uint8",
          "name": "round",
          "type": "uint8"
        }
      ],
      "name": "RoundRequested",
      "type": "event"
    },
    {
      "inputs": [],
      "name": "decimals",
      "outputs": [
        {
          "internalType": "uint8",
          "name": "",
          "type": "uint8"
        }
      ],
      "stateMutability": "view",
      "type": "function"
    },
    {
      "inputs": [],
      "name": "description",
      "outputs": [
        {
          "internalType": "string",
          "name": "",
          "type": "string"
        }
      ],
      "stateMutability": "view",
      "type": "function"
    },
    {
      "inputs": [
        {
          "internalType": "uint80",
          "name": "roundId",
          "type": "uint80"
        }
      ],
      "name": "getRoundData",
      "outputs": [
        {
          "internalType": "uint80",
          "name": "roundId_",
          "type": "uint80"
        },
        {
          "internalType": "int256",
          "name": "answer",
          "type": "int256"
        },
        {
          "internalType": "uint256",
          "name": "startedAt",
          "type": "uint256"
        },
        {
          "internalType": "uint256",
          "name": "updatedAt",
          "type": "uint256"
        },
        {
          "internalType": "uint80",
          "name": "answeredInRound",
          "type": "uint80"
        }
      ],
      "stateMutability": "view",
      "type": "function"
    },
    {
      "inputs": [],
      "name": "latestRoundData",
      "outputs": [
        {
          "internalType": "uint80",
          "name": "roundId_",
          "type": "uint80"
        },
        {
          "internalType": "int256",
          "name": "answer",
          "type": "int256"
        },
        {
          "internalType": "uint256",
          "name": "startedAt",
          "type": "uint256"
        },
        {
          "internalType": "uint256",
          "name": "updatedAt",
          "type": "uint256"
        },
        {
          "internalType": "uint80",
          "name": "answeredInRound",
          "type": "uint80"
        }
      ],
      "stateMutability": "view",
      "type": "function"
    },
    {
      "inputs": [],
      "name": "owner",
      "outputs": [
        {
          "internalType": "address",
          "name": "",
          "type": "address"
        }
      ],
      "stateMutability": "view",
      "type": "function"
    },
    {
      "inputs": [],
      "name": "renounceOwnership",
      "outputs": [],
      "stateMutability": "nonpayable",
      "type": "function"
    },
    {
      "inputs": [],
      "name": "requestNewRound",
      "outputs": [
        {
          "internalType": "uint80",
          "name": "",
          "type": "uint80"
        }
      ],
      "stateMutability": "nonpayable",
      "type": "function"
    },
    {
      "inputs": [
        {
          "internalType": "address",
          "name": "newOwner",
          "type": "address"
        }
      ],
      "name": "transferOwnership",
      "outputs": [],
      "stateMutability": "nonpayable",
      "type": "function"
    },
    {
      "inputs": [
        {
          "internalType": "bytes32",
          "name": "_epochAndRound",
          "type": "bytes32"
        },
        {
          "internalType": "bytes",
          "name": "report",
          "type": "bytes"
        }
      ],
      "name": "transmit",
      "outputs": [],
      "stateMutability": "nonpayable",
      "type": "function"
    }
  ],
  "bytecode": "0x60a060405234801561001057600080fd5b50604051610b92380380610b9283398101604081905261002f916100e0565b338061005557604051631e4fbdf760e01b81526000600482015260240160405180910390fd5b61005e8161007a565b5060ff82166080526001610072828261024f565b50505061030d565b600080546001600160a01b038381166001600160a01b0319831681178455604051919092169283917f8be0079c531659141344cd1fd0a4f28419497f9722a3daafe3b4186f6b6457e09190a35050565b634e487b7160e01b600052604160045260246000fd5b600080604083850312156100f357600080fd5b825160ff8116811461010457600080fd5b60208401519092506001600160401b0381111561012057600080fd5b8301601f8101851361013157600080fd5b80516001600160401b0381111561014a5761014a6100ca565b604051601f8201601f19908116603f011681016001600160401b0381118282101715610178576101786100ca565b60405281815282820160200187101561019057600080fd5b60005b828110156101af57602081850181015183830182015201610193565b506000602083830101528093505050509250929050565b600181811c908216806101da57607f821691505b6020821081036101fa57634e487b7160e01b600052602260045260246000fd5b50919050565b601f82111561024a57806000526020600020601f840160051c810160208510156102275750805b601f840160051c820191505b818110156102475760008155600101610233565b50505b505050565b81516001600160401b03811115610268576102686100ca565b61027c8161027684546101c6565b84610200565b6020601f8211600181146102b057600083156102985750848201515b600019600385901b1c1916600184901b178455610247565b600084815260208120601f198516915b828110156102e057878501518255602094850194600190920191016102c0565b50848210156102fe5786840151600019600387901b60f8161c191681555b50505050600190811b01905550565b60805161086b6103276000396000609d015261086b6000f3fe608060405234801561001057600080fd5b50600436106100935760003560e01c806398e5b12a1161006657806398e5b12a146101105780639a6fc8f5146101335780639fbd42f61461017d578063f2fde38b14610190578063feaf968c146101a357600080fd5b8063313ce56714610098578063715018a6146100d65780637284e416146100e05780638da5cb5b146100f5575b600080fd5b6100bf7f000000000000000000000000000000000000000000000000000000000000000081565b60405160ff90911681526020015b60405180910390f35b6100de610201565b005b6100e8610215565b6040516100cd919061062c565b6000546040516001600160a01b0390911681526020016100cd565b6101186102a7565b60405169ffffffffffffffffffff90911681526020016100cd565b61014661014136600461067a565b610326565b6040805169ffffffffffffffffffff968716815260208101959095528401929092526060830152909116608082015260a0016100cd565b6100de61018b3660046106ad565b6103b6565b6100de61019e36600461072b565b610479565b610146600254600160281b900463ffffffff90811660008181526003602090815260409182902082516060810184529054601781900b808352600160c01b82048716938301849052600160e01b909104909516920182905291938490565b6102096104b7565b61021360006104e4565b565b60606001805461022490610754565b80601f016020809104026020016040519081016040528092919081815260200182805461025090610754565b801561029d5780601f106102725761010080835404028352916020019161029d565b820191906000526020600020905b81548152906001019060200180831161028057829003601f168201915b5050505050905090565b60006102b16104b7565b6002546040805163ffffffff600884901c8116825260ff8416602083015264ffffffffff841693600160281b9004169133917f8c3be4ce9a858c73cc07e0d07f3492769061df4789c0d895d61f69944de2e770910160405180910390a26103198160016107a4565b63ffffffff169250505090565b60008080808063ffffffff69ffffffffffffffffffff87161115610358575060009350839250829150819050806103ad565b5050505063ffffffff82811660009081526003602090815260409182902082516060810184529054601781900b808352600160c01b82048616938301849052600160e01b909104909416920182905284935090835b91939590929450565b6103be6104b7565b6040805180820190915260025464ffffffffff808216808452600160281b90920463ffffffff166020840152859291908316116104315760405162461bcd60e51b815260206004820152600c60248201526b1cdd185b19481c995c1bdc9d60a21b60448201526064015b60405180910390fd5b610472818386868080601f01602080910402602001604051908101604052809392919081815260200183838082843760009201919091525061053492505050565b5050505050565b6104816104b7565b6001600160a01b0381166104ab57604051631e4fbdf760e01b815260006004820152602401610428565b6104b4816104e4565b50565b6000546001600160a01b031633146102135760405163118cdaa760e01b8152336004820152602401610428565b600080546001600160a01b038381166001600160a01b0319831681178455604051919092169283917f8be0079c531659141344cd1fd0a4f28419497f9722a3daafe3b4186f6b6457e09190a35050565b64ffffffffff82168352602083018051600091829190610553826107c6565b63ffffffff16905250825161057190840160209081019085016107eb565b6040805160608101825260179290920b825263ffffffff92831660208084019182524285168484019081528a820180518716600090815260039093529390912093518454925191518616600160e01b026001600160e01b03928716600160c01b026001600160e01b03199094166001600160c01b03909216919091179290921716179091559551600280549751909216600160281b0268ffffffffffffffffff1990971664ffffffffff909116179590951790945550505050565b602081526000825180602084015260005b8181101561065a576020818601810151604086840101520161063d565b506000604082850101526040601f19601f83011684010191505092915050565b60006020828403121561068c57600080fd5b813569ffffffffffffffffffff811681146106a657600080fd5b9392505050565b6000806000604084860312156106c257600080fd5b83359250602084013567ffffffffffffffff8111156106e057600080fd5b8401601f810186136106f157600080fd5b803567ffffffffffffffff81111561070857600080fd5b86602082840101111561071a57600080fd5b939660209190910195509293505050565b60006020828403121561073d57600080fd5b81356001600160a01b03811681146106a657600080fd5b600181811c9082168061076857607f821691505b60208210810361078857634e487b7160e01b600052602260045260246000fd5b50919050565b634e487b7160e01b600052601160045260246000fd5b63ffffffff81811683821601908111156107c0576107c061078e565b92915050565b600063ffffffff821663ffffffff81036107e2576107e261078e565b60010192915050565b600080604083850312156107fe57600080fd5b825163ffffffff8116811461081257600080fd5b8092505060208301518060170b811461082a57600080fd5b80915050925092905056fea26469706673582212204f46abb108dbec14cb779071fad5b5e4947e261563fa18eb60d6df214337ecc464736f6c634300081b0033",
  "linkReferences": {},
  "deployedLinkReferences": {}
}