{
  "contracts/oracle/xipplePriceFeed.sol": {
    "XipplePriceFeed": {
      "abi": [
        {
          "inputs": [
            {
              "internalType": "uint8",
              "name": "decimals_",
              "type": "uint8"
            },
            {
              "internalType": "string",
              "name": "description_",
              "type": "string"
            }
          ],
          "stateMutability": "nonpayable",
          "type": "constructor"
        },
        {
          "inputs": [
            {
              "internalType": "address",
              "name": "owner",
              "type": "address"
            }
          ],
          "name": "OwnableInvalidOwner",
          "type": "error"
        },
        {
          "inputs": [
            {
              "internalType": "address",
              "name": "account",
              "type": "address"
            }
          ],
          "name": "OwnableUnauthorizedAccount",
          "type": "error"
        },
        {
          "anonymous": false,
          "inputs": [
            {
              "indexed": true,
              "internalType": "address",
              "name": "previousOwner",
              "type": "address"
            },
            {
              "indexed": true,
              "internalType": "address",
              "name": "newOwner",
              "type": "address"
            }
          ],
          "name": "OwnershipTransferred",
          "type": "event"
        },
        {
          "anonymous": false,
          "inputs": [
            {
              "indexed": true,
              "internalType": "address",
              "name": "requester",
              "type": "address"
            },
            {
              "indexed": false,
              "internalType": "uint32",
              "name": "epoch",
              "type": "uint32"
            },
            {
              "indexed": false,
              "internalType": "uint8",
              "name": "round",
              "type": "uint8"
            }
          ],
          "name": "RoundRequested",
          "type": "event"
        },
        {
          "inputs": [],
          "name": "decimals",
          "outputs": [
            {
              "internalType": "uint8",
              "name": "",
              "type": "uint8"
            }
          ],
          "stateMutability": "view",
          "type": "function"
        },
        {
          "inputs": [],
          "name": "description",
          "outputs": [
            {
              "internalType": "string",
              "name": "",
              "type": "string"
            }
          ],
          "stateMutability": "view",
          "type": "function"
        },
        {
          "inputs": [
            {
              "internalType": "uint80",
              "name": "roundId",
              "type": "uint80"
            }
          ],
          "name": "getRoundData",
          "outputs": [
            {
              "internalType": "uint80",
              "name": "roundId_",
              "type": "uint80"
            },
            {
              "internalType": "int256",
              "name": "answer",
              "type": "int256"
            },
            {
              "internalType": "uint256",
              "name": "startedAt",
              "type": "uint256"
            },
            {
              "internalType": "uint256",
              "name": "updatedAt",
              "type": "uint256"
            },
            {
              "internalType": "uint80",
              "name": "answeredInRound",
              "type": "uint80"
            }
          ],
          "stateMutability": "view",
          "type": "function"
        },
        {
          "inputs": [],
          "name": "latestRoundData",
          "outputs": [
            {
              "internalType": "uint80",
              "name": "roundId_",
              "type": "uint80"
            },
            {
              "internalType": "int256",
              "name": "answer",
              "type": "int256"
            },
            {
              "internalType": "uint256",
              "name": "startedAt",
              "type": "uint256"
            },
            {
              "internalType": "uint256",
              "name": "updatedAt",
              "type": "uint256"
            },
            {
              "internalType": "uint80",
              "name": "answeredInRound",
              "type": "uint80"
            }
          ],
          "stateMutability": "view",
          "type": "function"
        },
        {
          "inputs": [],
          "name": "owner",
          "outputs": [
            {
              "internalType": "address",
              "name": "",
              "type": "address"
            }
          ],
          "stateMutability": "view",
          "type": "function"
        },
        {
          "inputs": [],
          "name": "renounceOwnership",
          "outputs": [],
          "stateMutability": "nonpayable",
          "type": "function"
        },
        {
          "inputs": [],
          "name": "requestNewRound",
          "outputs": [
            {
              "internalType": "uint80",
              "name": "",
              "type": "uint80"
            }
          ],
          "stateMutability": "nonpayable",
          "type": "function"
        },
        {
          "inputs": [
            {
              "internalType": "address",
              "name": "newOwner",
              "type": "address"
            }
          ],
          "name": "transferOwnership",
          "outputs": [],
          "stateMutability": "nonpayable",
          "type": "function"
        },
        {
          "inputs": [
            {
              "internalType": "bytes32",
              "name": "_epochAndRound",
              "type": "bytes32"
            },
            {
              "internalType": "bytes",
              "name": "report",
              "type": "bytes"
            }
          ],
          "name": "transmit",
          "outputs": [],
          "stateMutability": "nonpayable",
          "type": "function"
        }
      ],
      "evm": {
        "bytecode": {
          "linkReferences": {},
          "object": "60a060405234801561001057600080fd5b50604051610b92380380610b9283398101604081905261002f916100e0565b338061005557604051631e4fbdf760e01b81526000600482015260240160405180910390fd5b61005e8161007a565b5060ff82166080526001610072828261024f565b50505061030d565b600080546001600160a01b038381166001600160a01b0319831681178455604051919092169283917f8be0079c531659141344cd1fd0a4f28419497f9722a3daafe3b4186f6b6457e09190a35050565b634e487b7160e01b600052604160045260246000fd5b600080604083850312156100f357600080fd5b825160ff8116811461010457600080fd5b60208401519092506001600160401b0381111561012057600080fd5b8301601f8101851361013157600080fd5b80516001600160401b0381111561014a5761014a6100ca565b604051601f8201601f19908116603f011681016001600160401b0381118282101715610178576101786100ca565b60405281815282820160200187101561019057600080fd5b60005b828110156101af57602081850181015183830182015201610193565b506000602083830101528093505050509250929050565b600181811c908216806101da57607f821691505b6020821081036101fa57634e487b7160e01b600052602260045260246000fd5b50919050565b601f82111561024a57806000526020600020601f840160051c810160208510156102275750805b601f840160051c820191505b818110156102475760008155600101610233565b50505b505050565b81516001600160401b03811115610268576102686100ca565b61027c8161027684546101c6565b84610200565b6020601f8211600181146102b057600083156102985750848201515b600019600385901b1c1916600184901b178455610247565b600084815260208120601f198516915b828110156102e057878501518255602094850194600190920191016102c0565b50848210156102fe5786840151600019600387901b60f8161c191681555b50505050600190811b01905550565b60805161086b6103276000396000609d015261086b6000f3fe608060405234801561001057600080fd5b50600436106100935760003560e01c806398e5b12a1161006657806398e5b12a146101105780639a6fc8f5146101335780639fbd42f61461017d578063f2fde38b14610190578063feaf968c146101a357600080fd5b8063313ce56714610098578063715018a6146100d65780637284e416146100e05780638da5cb5b146100f5575b600080fd5b6100bf7f000000000000000000000000000000000000000000000000000000000000000081565b60405160ff90911681526020015b60405180910390f35b6100de610201565b005b6100e8610215565b6040516100cd919061062c565b6000546040516001600160a01b0390911681526020016100cd565b6101186102a7565b60405169ffffffffffffffffffff90911681526020016100cd565b61014661014136600461067a565b610326565b6040805169ffffffffffffffffffff968716815260208101959095528401929092526060830152909116608082015260a0016100cd565b6100de61018b3660046106ad565b6103b6565b6100de61019e36600461072b565b610479565b610146600254600160281b900463ffffffff90811660008181526003602090815260409182902082516060810184529054601781900b808352600160c01b82048716938301849052600160e01b909104909516920182905291938490565b6102096104b7565b61021360006104e4565b565b60606001805461022490610754565b80601f016020809104026020016040519081016040528092919081815260200182805461025090610754565b801561029d5780601f106102725761010080835404028352916020019161029d565b820191906000526020600020905b81548152906001019060200180831161028057829003601f168201915b5050505050905090565b60006102b16104b7565b6002546040805163ffffffff600884901c8116825260ff8416602083015264ffffffffff841693600160281b9004169133917f8c3be4ce9a858c73cc07e0d07f3492769061df4789c0d895d61f69944de2e770910160405180910390a26103198160016107a4565b63ffffffff169250505090565b60008080808063ffffffff69ffffffffffffffffffff87161115610358575060009350839250829150819050806103ad565b5050505063ffffffff82811660009081526003602090815260409182902082516060810184529054601781900b808352600160c01b82048616938301849052600160e01b909104909416920182905284935090835b91939590929450565b6103be6104b7565b6040805180820190915260025464ffffffffff808216808452600160281b90920463ffffffff166020840152859291908316116104315760405162461bcd60e51b815260206004820152600c60248201526b1cdd185b19481c995c1bdc9d60a21b60448201526064015b60405180910390fd5b610472818386868080601f01602080910402602001604051908101604052809392919081815260200183838082843760009201919091525061053492505050565b5050505050565b6104816104b7565b6001600160a01b0381166104ab57604051631e4fbdf760e01b815260006004820152602401610428565b6104b4816104e4565b50565b6000546001600160a01b031633146102135760405163118cdaa760e01b8152336004820152602401610428565b600080546001600160a01b038381166001600160a01b0319831681178455604051919092169283917f8be0079c531659141344cd1fd0a4f28419497f9722a3daafe3b4186f6b6457e09190a35050565b64ffffffffff82168352602083018051600091829190610553826107c6565b63ffffffff16905250825161057190840160209081019085016107eb565b6040805160608101825260179290920b825263ffffffff92831660208084019182524285168484019081528a820180518716600090815260039093529390912093518454925191518616600160e01b026001600160e01b03928716600160c01b026001600160e01b03199094166001600160c01b03909216919091179290921716179091559551600280549751909216600160281b0268ffffffffffffffffff1990971664ffffffffff909116179590951790945550505050565b602081526000825180602084015260005b8181101561065a576020818601810151604086840101520161063d565b506000604082850101526040601f19601f83011684010191505092915050565b60006020828403121561068c57600080fd5b813569ffffffffffffffffffff811681146106a657600080fd5b9392505050565b6000806000604084860312156106c257600080fd5b83359250602084013567ffffffffffffffff8111156106e057600080fd5b8401601f810186136106f157600080fd5b803567ffffffffffffffff81111561070857600080fd5b86602082840101111561071a57600080fd5b939660209190910195509293505050565b60006020828403121561073d57600080fd5b81356001600160a01b03811681146106a657600080fd5b600181811c9082168061076857607f821691505b60208210810361078857634e487b7160e01b600052602260045260246000fd5b50919050565b634e487b7160e01b600052601160045260246000fd5b63ffffffff81811683821601908111156107c0576107c061078e565b92915050565b600063ffffffff821663ffffffff81036107e2576107e261078e565b60010192915050565b600080604083850312156107fe57600080fd5b825163ffffffff8116811461081257600080fd5b8092505060208301518060170b811461082a57600080fd5b80915050925092905056fea26469706673582212204f46abb108dbec14cb779071fad5b5e4947e261563fa18eb60d6df214337ecc464736f6c634300081b0033",
          "opcodes": "PUSH1 0xA0 PUSH1 0x40 MSTORE CALLVALUE DUP1 ISZERO PUSH2 0x10 JUMPI PUSH1 0x0 DUP1 REVERT JUMPDEST POP PUSH1 0x40 MLOAD PUSH2 0xB92 CODESIZE SUB DUP1 PUSH2 0xB92 DUP4 CODECOPY DUP2 ADD PUSH1 0x40 DUP2 SWAP1 MSTORE PUSH2 0x2F SWAP2 PUSH2 0xE0 JUMP JUMPDEST CALLER DUP1 PUSH2 0x55 JUMPI PUSH1 0x40 MLOAD PUSH4 0x1E4FBDF7 PUSH1 0xE0 SHL DUP2 MSTORE PUSH1 0x0 PUSH1 0x4 DUP3 ADD MSTORE PUSH1 0x24 ADD PUSH1 0x40 MLOAD DUP1 SWAP2 SUB SWAP1 REVERT JUMPDEST PUSH2 0x5E DUP2 PUSH2 0x7A JUMP JUMPDEST POP PUSH1 0xFF DUP3 AND PUSH1 0x80 MSTORE PUSH1 0x1 PUSH2 0x72 DUP3 DUP3 PUSH2 0x24F JUMP JUMPDEST POP POP POP PUSH2 0x30D JUMP JUMPDEST PUSH1 0x0 DUP1 SLOAD PUSH1 0x1 PUSH1 0x1 PUSH1 0xA0 SHL SUB DUP4 DUP2 AND PUSH1 0x1 PUSH1 0x1 PUSH1 0xA0 SHL SUB NOT DUP4 AND DUP2 OR DUP5 SSTORE PUSH1 0x40 MLOAD SWAP2 SWAP1 SWAP3 AND SWAP3 DUP4 SWAP2 PUSH32 0x8BE0079C531659141344CD1FD0A4F28419497F9722A3DAAFE3B4186F6B6457E0 SWAP2 SWAP1 LOG3 POP POP JUMP JUMPDEST PUSH4 0x4E487B71 PUSH1 0xE0 SHL PUSH1 0x0 MSTORE PUSH1 0x41 PUSH1 0x4 MSTORE PUSH1 0x24 PUSH1 0x0 REVERT JUMPDEST PUSH1 0x0 DUP1 PUSH1 0x40 DUP4 DUP6 SUB SLT ISZERO PUSH2 0xF3 JUMPI PUSH1 0x0 DUP1 REVERT JUMPDEST DUP3 MLOAD PUSH1 0xFF DUP2 AND DUP2 EQ PUSH2 0x104 JUMPI PUSH1 0x0 DUP1 REVERT JUMPDEST PUSH1 0x20 DUP5 ADD MLOAD SWAP1 SWAP3 POP PUSH1 0x1 PUSH1 0x1 PUSH1 0x40 SHL SUB DUP2 GT ISZERO PUSH2 0x120 JUMPI PUSH1 0x0 DUP1 REVERT JUMPDEST DUP4 ADD PUSH1 0x1F DUP2 ADD DUP6 SGT PUSH2 0x131 JUMPI PUSH1 0x0 DUP1 REVERT JUMPDEST DUP1 MLOAD PUSH1 0x1 PUSH1 0x1 PUSH1 0x40 SHL SUB DUP2 GT ISZERO PUSH2 0x14A JUMPI PUSH2 0x14A PUSH2 0xCA JUMP JUMPDEST PUSH1 0x40 MLOAD PUSH1 0x1F DUP3 ADD PUSH1 0x1F NOT SWAP1 DUP2 AND PUSH1 0x3F ADD AND DUP2 ADD PUSH1 0x1 PUSH1 0x1 PUSH1 0x40 SHL SUB DUP2 GT DUP3 DUP3 LT OR ISZERO PUSH2 0x178 JUMPI PUSH2 0x178 PUSH2 0xCA JUMP JUMPDEST PUSH1 0x40 MSTORE DUP2 DUP2 MSTORE DUP3 DUP3 ADD PUSH1 0x20 ADD DUP8 LT ISZERO PUSH2 0x190 JUMPI PUSH1 0x0 DUP1 REVERT JUMPDEST PUSH1 0x0 JUMPDEST DUP3 DUP2 LT ISZERO PUSH2 0x1AF JUMPI PUSH1 0x20 DUP2 DUP6 ADD DUP2 ADD MLOAD DUP4 DUP4 ADD DUP3 ADD MSTORE ADD PUSH2 0x193 JUMP JUMPDEST POP PUSH1 0x0 PUSH1 0x20 DUP4 DUP4 ADD ADD MSTORE DUP1 SWAP4 POP POP POP POP SWAP3 POP SWAP3 SWAP1 POP JUMP JUMPDEST PUSH1 0x1 DUP2 DUP2 SHR SWAP1 DUP3 AND DUP1 PUSH2 0x1DA JUMPI PUSH1 0x7F DUP3 AND SWAP2 POP JUMPDEST PUSH1 0x20 DUP3 LT DUP2 SUB PUSH2 0x1FA JUMPI PUSH4 0x4E487B71 PUSH1 0xE0 SHL PUSH1 0x0 MSTORE PUSH1 0x22 PUSH1 0x4 MSTORE PUSH1 0x24 PUSH1 0x0 REVERT JUMPDEST POP SWAP2 SWAP1 POP JUMP JUMPDEST PUSH1 0x1F DUP3 GT ISZERO PUSH2 0x24A JUMPI DUP1 PUSH1 0x0 MSTORE PUSH1 0x20 PUSH1 0x0 KECCAK256 PUSH1 0x1F DUP5 ADD PUSH1 0x5 SHR DUP2 ADD PUSH1 0x20 DUP6 LT ISZERO PUSH2 0x227 JUMPI POP DUP1 JUMPDEST PUSH1 0x1F DUP5 ADD PUSH1 0x5 SHR DUP3 ADD SWAP2 POP JUMPDEST DUP2 DUP2 LT ISZERO PUSH2 0x247 JUMPI PUSH1 0x0 DUP2 SSTORE PUSH1 0x1 ADD PUSH2 0x233 JUMP JUMPDEST POP POP JUMPDEST POP POP POP JUMP JUMPDEST DUP2 MLOAD PUSH1 0x1 PUSH1 0x1 PUSH1 0x40 SHL SUB DUP2 GT ISZERO PUSH2 0x268 JUMPI PUSH2 0x268 PUSH2 0xCA JUMP JUMPDEST PUSH2 0x27C DUP2 PUSH2 0x276 DUP5 SLOAD PUSH2 0x1C6 JUMP JUMPDEST DUP5 PUSH2 0x200 JUMP JUMPDEST PUSH1 0x20 PUSH1 0x1F DUP3 GT PUSH1 0x1 DUP2 EQ PUSH2 0x2B0 JUMPI PUSH1 0x0 DUP4 ISZERO PUSH2 0x298 JUMPI POP DUP5 DUP3 ADD MLOAD JUMPDEST PUSH1 0x0 NOT PUSH1 0x3 DUP6 SWAP1 SHL SHR NOT AND PUSH1 0x1 DUP5 SWAP1 SHL OR DUP5 SSTORE PUSH2 0x247 JUMP JUMPDEST PUSH1 0x0 DUP5 DUP2 MSTORE PUSH1 0x20 DUP2 KECCAK256 PUSH1 0x1F NOT DUP6 AND SWAP2 JUMPDEST DUP3 DUP2 LT ISZERO PUSH2 0x2E0 JUMPI DUP8 DUP6 ADD MLOAD DUP3 SSTORE PUSH1 0x20 SWAP5 DUP6 ADD SWAP5 PUSH1 0x1 SWAP1 SWAP3 ADD SWAP2 ADD PUSH2 0x2C0 JUMP JUMPDEST POP DUP5 DUP3 LT ISZERO PUSH2 0x2FE JUMPI DUP7 DUP5 ADD MLOAD PUSH1 0x0 NOT PUSH1 0x3 DUP8 SWAP1 SHL PUSH1 0xF8 AND SHR NOT AND DUP2 SSTORE JUMPDEST POP POP POP POP PUSH1 0x1 SWAP1 DUP2 SHL ADD SWAP1 SSTORE POP JUMP JUMPDEST PUSH1 0x80 MLOAD PUSH2 0x86B PUSH2 0x327 PUSH1 0x0 CODECOPY PUSH1 0x0 PUSH1 0x9D ADD MSTORE PUSH2 0x86B PUSH1 0x0 RETURN INVALID PUSH1 0x80 PUSH1 0x40 MSTORE CALLVALUE DUP1 ISZERO PUSH2 0x10 JUMPI PUSH1 0x0 DUP1 REVERT JUMPDEST POP PUSH1 0x4 CALLDATASIZE LT PUSH2 0x93 JUMPI PUSH1 0x0 CALLDATALOAD PUSH1 0xE0 SHR DUP1 PUSH4 0x98E5B12A GT PUSH2 0x66 JUMPI DUP1 PUSH4 0x98E5B12A EQ PUSH2 0x110 JUMPI DUP1 PUSH4 0x9A6FC8F5 EQ PUSH2 0x133 JUMPI DUP1 PUSH4 0x9FBD42F6 EQ PUSH2 0x17D JUMPI DUP1 PUSH4 0xF2FDE38B EQ PUSH2 0x190 JUMPI DUP1 PUSH4 0xFEAF968C EQ PUSH2 0x1A3 JUMPI PUSH1 0x0 DUP1 REVERT JUMPDEST DUP1 PUSH4 0x313CE567 EQ PUSH2 0x98 JUMPI DUP1 PUSH4 0x715018A6 EQ PUSH2 0xD6 JUMPI DUP1 PUSH4 0x7284E416 EQ PUSH2 0xE0 JUMPI DUP1 PUSH4 0x8DA5CB5B EQ PUSH2 0xF5 JUMPI JUMPDEST PUSH1 0x0 DUP1 REVERT JUMPDEST PUSH2 0xBF PUSH32 0x0 DUP2 JUMP JUMPDEST PUSH1 0x40 MLOAD PUSH1 0xFF SWAP1 SWAP2 AND DUP2 MSTORE PUSH1 0x20 ADD JUMPDEST PUSH1 0x40 MLOAD DUP1 SWAP2 SUB SWAP1 RETURN JUMPDEST PUSH2 0xDE PUSH2 0x201 JUMP JUMPDEST STOP JUMPDEST PUSH2 0xE8 PUSH2 0x215 JUMP JUMPDEST PUSH1 0x40 MLOAD PUSH2 0xCD SWAP2 SWAP1 PUSH2 0x62C JUMP JUMPDEST PUSH1 0x0 SLOAD PUSH1 0x40 MLOAD PUSH1 0x1 PUSH1 0x1 PUSH1 0xA0 SHL SUB SWAP1 SWAP2 AND DUP2 MSTORE PUSH1 0x20 ADD PUSH2 0xCD JUMP JUMPDEST PUSH2 0x118 PUSH2 0x2A7 JUMP JUMPDEST PUSH1 0x40 MLOAD PUSH10 0xFFFFFFFFFFFFFFFFFFFF SWAP1 SWAP2 AND DUP2 MSTORE PUSH1 0x20 ADD PUSH2 0xCD JUMP JUMPDEST PUSH2 0x146 PUSH2 0x141 CALLDATASIZE PUSH1 0x4 PUSH2 0x67A JUMP JUMPDEST PUSH2 0x326 JUMP JUMPDEST PUSH1 0x40 DUP1 MLOAD PUSH10 0xFFFFFFFFFFFFFFFFFFFF SWAP7 DUP8 AND DUP2 MSTORE PUSH1 0x20 DUP2 ADD SWAP6 SWAP1 SWAP6 MSTORE DUP5 ADD SWAP3 SWAP1 SWAP3 MSTORE PUSH1 0x60 DUP4 ADD MSTORE SWAP1 SWAP2 AND PUSH1 0x80 DUP3 ADD MSTORE PUSH1 0xA0 ADD PUSH2 0xCD JUMP JUMPDEST PUSH2 0xDE PUSH2 0x18B CALLDATASIZE PUSH1 0x4 PUSH2 0x6AD JUMP JUMPDEST PUSH2 0x3B6 JUMP JUMPDEST PUSH2 0xDE PUSH2 0x19E CALLDATASIZE PUSH1 0x4 PUSH2 0x72B JUMP JUMPDEST PUSH2 0x479 JUMP JUMPDEST PUSH2 0x146 PUSH1 0x2 SLOAD PUSH1 0x1 PUSH1 0x28 SHL SWAP1 DIV PUSH4 0xFFFFFFFF SWAP1 DUP2 AND PUSH1 0x0 DUP2 DUP2 MSTORE PUSH1 0x3 PUSH1 0x20 SWAP1 DUP2 MSTORE PUSH1 0x40 SWAP2 DUP3 SWAP1 KECCAK256 DUP3 MLOAD PUSH1 0x60 DUP2 ADD DUP5 MSTORE SWAP1 SLOAD PUSH1 0x17 DUP2 SWAP1 SIGNEXTEND DUP1 DUP4 MSTORE PUSH1 0x1 PUSH1 0xC0 SHL DUP3 DIV DUP8 AND SWAP4 DUP4 ADD DUP5 SWAP1 MSTORE PUSH1 0x1 PUSH1 0xE0 SHL SWAP1 SWAP2 DIV SWAP1 SWAP6 AND SWAP3 ADD DUP3 SWAP1 MSTORE SWAP2 SWAP4 DUP5 SWAP1 JUMP JUMPDEST PUSH2 0x209 PUSH2 0x4B7 JUMP JUMPDEST PUSH2 0x213 PUSH1 0x0 PUSH2 0x4E4 JUMP JUMPDEST JUMP JUMPDEST PUSH1 0x60 PUSH1 0x1 DUP1 SLOAD PUSH2 0x224 SWAP1 PUSH2 0x754 JUMP JUMPDEST DUP1 PUSH1 0x1F ADD PUSH1 0x20 DUP1 SWAP2 DIV MUL PUSH1 0x20 ADD PUSH1 0x40 MLOAD SWAP1 DUP2 ADD PUSH1 0x40 MSTORE DUP1 SWAP3 SWAP2 SWAP1 DUP2 DUP2 MSTORE PUSH1 0x20 ADD DUP3 DUP1 SLOAD PUSH2 0x250 SWAP1 PUSH2 0x754 JUMP JUMPDEST DUP1 ISZERO PUSH2 0x29D JUMPI DUP1 PUSH1 0x1F LT PUSH2 0x272 JUMPI PUSH2 0x100 DUP1 DUP4 SLOAD DIV MUL DUP4 MSTORE SWAP2 PUSH1 0x20 ADD SWAP2 PUSH2 0x29D JUMP JUMPDEST DUP3 ADD SWAP2 SWAP1 PUSH1 0x0 MSTORE PUSH1 0x20 PUSH1 0x0 KECCAK256 SWAP1 JUMPDEST DUP2 SLOAD DUP2 MSTORE SWAP1 PUSH1 0x1 ADD SWAP1 PUSH1 0x20 ADD DUP1 DUP4 GT PUSH2 0x280 JUMPI DUP3 SWAP1 SUB PUSH1 0x1F AND DUP3 ADD SWAP2 JUMPDEST POP POP POP POP POP SWAP1 POP SWAP1 JUMP JUMPDEST PUSH1 0x0 PUSH2 0x2B1 PUSH2 0x4B7 JUMP JUMPDEST PUSH1 0x2 SLOAD PUSH1 0x40 DUP1 MLOAD PUSH4 0xFFFFFFFF PUSH1 0x8 DUP5 SWAP1 SHR DUP2 AND DUP3 MSTORE PUSH1 0xFF DUP5 AND PUSH1 0x20 DUP4 ADD MSTORE PUSH5 0xFFFFFFFFFF DUP5 AND SWAP4 PUSH1 0x1 PUSH1 0x28 SHL SWAP1 DIV AND SWAP2 CALLER SWAP2 PUSH32 0x8C3BE4CE9A858C73CC07E0D07F3492769061DF4789C0D895D61F69944DE2E770 SWAP2 ADD PUSH1 0x40 MLOAD DUP1 SWAP2 SUB SWAP1 LOG2 PUSH2 0x319 DUP2 PUSH1 0x1 PUSH2 0x7A4 JUMP JUMPDEST PUSH4 0xFFFFFFFF AND SWAP3 POP POP POP SWAP1 JUMP JUMPDEST PUSH1 0x0 DUP1 DUP1 DUP1 DUP1 PUSH4 0xFFFFFFFF PUSH10 0xFFFFFFFFFFFFFFFFFFFF DUP8 AND GT ISZERO PUSH2 0x358 JUMPI POP PUSH1 0x0 SWAP4 POP DUP4 SWAP3 POP DUP3 SWAP2 POP DUP2 SWAP1 POP DUP1 PUSH2 0x3AD JUMP JUMPDEST POP POP POP POP PUSH4 0xFFFFFFFF DUP3 DUP2 AND PUSH1 0x0 SWAP1 DUP2 MSTORE PUSH1 0x3 PUSH1 0x20 SWAP1 DUP2 MSTORE PUSH1 0x40 SWAP2 DUP3 SWAP1 KECCAK256 DUP3 MLOAD PUSH1 0x60 DUP2 ADD DUP5 MSTORE SWAP1 SLOAD PUSH1 0x17 DUP2 SWAP1 SIGNEXTEND DUP1 DUP4 MSTORE PUSH1 0x1 PUSH1 0xC0 SHL DUP3 DIV DUP7 AND SWAP4 DUP4 ADD DUP5 SWAP1 MSTORE PUSH1 0x1 PUSH1 0xE0 SHL SWAP1 SWAP2 DIV SWAP1 SWAP5 AND SWAP3 ADD DUP3 SWAP1 MSTORE DUP5 SWAP4 POP SWAP1 DUP4 JUMPDEST SWAP2 SWAP4 SWAP6 SWAP1 SWAP3 SWAP5 POP JUMP JUMPDEST PUSH2 0x3BE PUSH2 0x4B7 JUMP JUMPDEST PUSH1 0x40 DUP1 MLOAD DUP1 DUP3 ADD SWAP1 SWAP2 MSTORE PUSH1 0x2 SLOAD PUSH5 0xFFFFFFFFFF DUP1 DUP3 AND DUP1 DUP5 MSTORE PUSH1 0x1 PUSH1 0x28 SHL SWAP1 SWAP3 DIV PUSH4 0xFFFFFFFF AND PUSH1 0x20 DUP5 ADD MSTORE DUP6 SWAP3 SWAP2 SWAP1 DUP4 AND GT PUSH2 0x431 JUMPI PUSH1 0x40 MLOAD PUSH3 0x461BCD PUSH1 0xE5 SHL DUP2 MSTORE PUSH1 0x20 PUSH1 0x4 DUP3 ADD MSTORE PUSH1 0xC PUSH1 0x24 DUP3 ADD MSTORE PUSH12 0x1CDD185B19481C995C1BDC9D PUSH1 0xA2 SHL PUSH1 0x44 DUP3 ADD MSTORE PUSH1 0x64 ADD JUMPDEST PUSH1 0x40 MLOAD DUP1 SWAP2 SUB SWAP1 REVERT JUMPDEST PUSH2 0x472 DUP2 DUP4 DUP7 DUP7 DUP1 DUP1 PUSH1 0x1F ADD PUSH1 0x20 DUP1 SWAP2 DIV MUL PUSH1 0x20 ADD PUSH1 0x40 MLOAD SWAP1 DUP2 ADD PUSH1 0x40 MSTORE DUP1 SWAP4 SWAP3 SWAP2 SWAP1 DUP2 DUP2 MSTORE PUSH1 0x20 ADD DUP4 DUP4 DUP1 DUP3 DUP5 CALLDATACOPY PUSH1 0x0 SWAP3 ADD SWAP2 SWAP1 SWAP2 MSTORE POP PUSH2 0x534 SWAP3 POP POP POP JUMP JUMPDEST POP POP POP POP POP JUMP JUMPDEST PUSH2 0x481 PUSH2 0x4B7 JUMP JUMPDEST PUSH1 0x1 PUSH1 0x1 PUSH1 0xA0 SHL SUB DUP2 AND PUSH2 0x4AB JUMPI PUSH1 0x40 MLOAD PUSH4 0x1E4FBDF7 PUSH1 0xE0 SHL DUP2 MSTORE PUSH1 0x0 PUSH1 0x4 DUP3 ADD MSTORE PUSH1 0x24 ADD PUSH2 0x428 JUMP JUMPDEST PUSH2 0x4B4 DUP2 PUSH2 0x4E4 JUMP JUMPDEST POP JUMP JUMPDEST PUSH1 0x0 SLOAD PUSH1 0x1 PUSH1 0x1 PUSH1 0xA0 SHL SUB AND CALLER EQ PUSH2 0x213 JUMPI PUSH1 0x40 MLOAD PUSH4 0x118CDAA7 PUSH1 0xE0 SHL DUP2 MSTORE CALLER PUSH1 0x4 DUP3 ADD MSTORE PUSH1 0x24 ADD PUSH2 0x428 JUMP JUMPDEST PUSH1 0x0 DUP1 SLOAD PUSH1 0x1 PUSH1 0x1 PUSH1 0xA0 SHL SUB DUP4 DUP2 AND PUSH1 0x1 PUSH1 0x1 PUSH1 0xA0 SHL SUB NOT DUP4 AND DUP2 OR DUP5 SSTORE PUSH1 0x40 MLOAD SWAP2 SWAP1 SWAP3 AND SWAP3 DUP4 SWAP2 PUSH32 0x8BE0079C531659141344CD1FD0A4F28419497F9722A3DAAFE3B4186F6B6457E0 SWAP2 SWAP1 LOG3 POP POP JUMP JUMPDEST PUSH5 0xFFFFFFFFFF DUP3 AND DUP4 MSTORE PUSH1 0x20 DUP4 ADD DUP1 MLOAD PUSH1 0x0 SWAP2 DUP3 SWAP2 SWAP1 PUSH2 0x553 DUP3 PUSH2 0x7C6 JUMP JUMPDEST PUSH4 0xFFFFFFFF AND SWAP1 MSTORE POP DUP3 MLOAD PUSH2 0x571 SWAP1 DUP5 ADD PUSH1 0x20 SWAP1 DUP2 ADD SWAP1 DUP6 ADD PUSH2 0x7EB JUMP JUMPDEST PUSH1 0x40 DUP1 MLOAD PUSH1 0x60 DUP2 ADD DUP3 MSTORE PUSH1 0x17 SWAP3 SWAP1 SWAP3 SIGNEXTEND DUP3 MSTORE PUSH4 0xFFFFFFFF SWAP3 DUP4 AND PUSH1 0x20 DUP1 DUP5 ADD SWAP2 DUP3 MSTORE TIMESTAMP DUP6 AND DUP5 DUP5 ADD SWAP1 DUP2 MSTORE DUP11 DUP3 ADD DUP1 MLOAD DUP8 AND PUSH1 0x0 SWAP1 DUP2 MSTORE PUSH1 0x3 SWAP1 SWAP4 MSTORE SWAP4 SWAP1 SWAP2 KECCAK256 SWAP4 MLOAD DUP5 SLOAD SWAP3 MLOAD SWAP2 MLOAD DUP7 AND PUSH1 0x1 PUSH1 0xE0 SHL MUL PUSH1 0x1 PUSH1 0x1 PUSH1 0xE0 SHL SUB SWAP3 DUP8 AND PUSH1 0x1 PUSH1 0xC0 SHL MUL PUSH1 0x1 PUSH1 0x1 PUSH1 0xE0 SHL SUB NOT SWAP1 SWAP5 AND PUSH1 0x1 PUSH1 0x1 PUSH1 0xC0 SHL SUB SWAP1 SWAP3 AND SWAP2 SWAP1 SWAP2 OR SWAP3 SWAP1 SWAP3 OR AND OR SWAP1 SWAP2 SSTORE SWAP6 MLOAD PUSH1 0x2 DUP1 SLOAD SWAP8 MLOAD SWAP1 SWAP3 AND PUSH1 0x1 PUSH1 0x28 SHL MUL PUSH9 0xFFFFFFFFFFFFFFFFFF NOT SWAP1 SWAP8 AND PUSH5 0xFFFFFFFFFF SWAP1 SWAP2 AND OR SWAP6 SWAP1 SWAP6 OR SWAP1 SWAP5 SSTORE POP POP POP POP JUMP JUMPDEST PUSH1 0x20 DUP2 MSTORE PUSH1 0x0 DUP3 MLOAD DUP1 PUSH1 0x20 DUP5 ADD MSTORE PUSH1 0x0 JUMPDEST DUP2 DUP2 LT ISZERO PUSH2 0x65A JUMPI PUSH1 0x20 DUP2 DUP7 ADD DUP2 ADD MLOAD PUSH1 0x40 DUP7 DUP5 ADD ADD MSTORE ADD PUSH2 0x63D JUMP JUMPDEST POP PUSH1 0x0 PUSH1 0x40 DUP3 DUP6 ADD ADD MSTORE PUSH1 0x40 PUSH1 0x1F NOT PUSH1 0x1F DUP4 ADD AND DUP5 ADD ADD SWAP2 POP POP SWAP3 SWAP2 POP POP JUMP JUMPDEST PUSH1 0x0 PUSH1 0x20 DUP3 DUP5 SUB SLT ISZERO PUSH2 0x68C JUMPI PUSH1 0x0 DUP1 REVERT JUMPDEST DUP2 CALLDATALOAD PUSH10 0xFFFFFFFFFFFFFFFFFFFF DUP2 AND DUP2 EQ PUSH2 0x6A6 JUMPI PUSH1 0x0 DUP1 REVERT JUMPDEST SWAP4 SWAP3 POP POP POP JUMP JUMPDEST PUSH1 0x0 DUP1 PUSH1 0x0 PUSH1 0x40 DUP5 DUP7 SUB SLT ISZERO PUSH2 0x6C2 JUMPI PUSH1 0x0 DUP1 REVERT JUMPDEST DUP4 CALLDATALOAD SWAP3 POP PUSH1 0x20 DUP5 ADD CALLDATALOAD PUSH8 0xFFFFFFFFFFFFFFFF DUP2 GT ISZERO PUSH2 0x6E0 JUMPI PUSH1 0x0 DUP1 REVERT JUMPDEST DUP5 ADD PUSH1 0x1F DUP2 ADD DUP7 SGT PUSH2 0x6F1 JUMPI PUSH1 0x0 DUP1 REVERT JUMPDEST DUP1 CALLDATALOAD PUSH8 0xFFFFFFFFFFFFFFFF DUP2 GT ISZERO PUSH2 0x708 JUMPI PUSH1 0x0 DUP1 REVERT JUMPDEST DUP7 PUSH1 0x20 DUP3 DUP5 ADD ADD GT ISZERO PUSH2 0x71A JUMPI PUSH1 0x0 DUP1 REVERT JUMPDEST SWAP4 SWAP7 PUSH1 0x20 SWAP2 SWAP1 SWAP2 ADD SWAP6 POP SWAP3 SWAP4 POP POP POP JUMP JUMPDEST PUSH1 0x0 PUSH1 0x20 DUP3 DUP5 SUB SLT ISZERO PUSH2 0x73D JUMPI PUSH1 0x0 DUP1 REVERT JUMPDEST DUP2 CALLDATALOAD PUSH1 0x1 PUSH1 0x1 PUSH1 0xA0 SHL SUB DUP2 AND DUP2 EQ PUSH2 0x6A6 JUMPI PUSH1 0x0 DUP1 REVERT JUMPDEST PUSH1 0x1 DUP2 DUP2 SHR SWAP1 DUP3 AND DUP1 PUSH2 0x768 JUMPI PUSH1 0x7F DUP3 AND SWAP2 POP JUMPDEST PUSH1 0x20 DUP3 LT DUP2 SUB PUSH2 0x788 JUMPI PUSH4 0x4E487B71 PUSH1 0xE0 SHL PUSH1 0x0 MSTORE PUSH1 0x22 PUSH1 0x4 MSTORE PUSH1 0x24 PUSH1 0x0 REVERT JUMPDEST POP SWAP2 SWAP1 POP JUMP JUMPDEST PUSH4 0x4E487B71 PUSH1 0xE0 SHL PUSH1 0x0 MSTORE PUSH1 0x11 PUSH1 0x4 MSTORE PUSH1 0x24 PUSH1 0x0 REVERT JUMPDEST PUSH4 0xFFFFFFFF DUP2 DUP2 AND DUP4 DUP3 AND ADD SWAP1 DUP2 GT ISZERO PUSH2 0x7C0 JUMPI PUSH2 0x7C0 PUSH2 0x78E JUMP JUMPDEST SWAP3 SWAP2 POP POP JUMP JUMPDEST PUSH1 0x0 PUSH4 0xFFFFFFFF DUP3 AND PUSH4 0xFFFFFFFF DUP2 SUB PUSH2 0x7E2 JUMPI PUSH2 0x7E2 PUSH2 0x78E JUMP JUMPDEST PUSH1 0x1 ADD SWAP3 SWAP2 POP POP JUMP JUMPDEST PUSH1 0x0 DUP1 PUSH1 0x40 DUP4 DUP6 SUB SLT ISZERO PUSH2 0x7FE JUMPI PUSH1 0x0 DUP1 REVERT JUMPDEST DUP3 MLOAD PUSH4 0xFFFFFFFF DUP2 AND DUP2 EQ PUSH2 0x812 JUMPI PUSH1 0x0 DUP1 REVERT JUMPDEST DUP1 SWAP3 POP POP PUSH1 0x20 DUP4 ADD MLOAD DUP1 PUSH1 0x17 SIGNEXTEND DUP2 EQ PUSH2 0x82A JUMPI PUSH1 0x0 DUP1 REVERT JUMPDEST DUP1 SWAP2 POP POP SWAP3 POP SWAP3 SWAP1 POP JUMP INVALID LOG2 PUSH5 0x6970667358 0x22 SLT KECCAK256 0x4F CHAINID 0xAB 0xB1 ADDMOD 0xDB 0xEC EQ 0xCB PUSH24 0x9071FAD5B5E4947E261563FA18EB60D6DF214337ECC46473 PUSH16 0x6C634300081B00330000000000000000 "
        },
        "methodIdentifiers": {
          "decimals()": "313ce567",
          "description()": "7284e416",
          "getRoundData(uint80)": "9a6fc8f5",
          "latestRoundData()": "feaf968c",
          "owner()": "8da5cb5b",
          "renounceOwnership()": "715018a6",
          "requestNewRound()": "98e5b12a",
          "transferOwnership(address)": "f2fde38b",
          "transmit(bytes32,bytes)": "9fbd42f6"
        }
      }
    }
  }
}